{
  "_format": "hh-sol-artifact-1",
  "contractName": "DAO",
  "sourceName": "contracts/DAO.sol",
  "abi": [
    {
      "inputs": [],
      "stateMutability": "nonpayable",
      "type": "constructor"
    },
    {
      "inputs": [],
      "name": "AccessControlBadConfirmation",
      "type": "error"
    },
    {
      "inputs": [
        {
          "internalType": "address",
          "name": "account",
          "type": "address"
        },
        {
          "internalType": "bytes32",
          "name": "neededRole",
          "type": "bytes32"
        }
      ],
      "name": "AccessControlUnauthorizedAccount",
      "type": "error"
    },
    {
      "inputs": [
        {
          "internalType": "uint256",
          "name": "increasedSupply",
          "type": "uint256"
        },
        {
          "internalType": "uint256",
          "name": "cap",
          "type": "uint256"
        }
      ],
      "name": "ERC20ExceededCap",
      "type": "error"
    },
    {
      "inputs": [
        {
          "internalType": "address",
          "name": "spender",
          "type": "address"
        },
        {
          "internalType": "uint256",
          "name": "allowance",
          "type": "uint256"
        },
        {
          "internalType": "uint256",
          "name": "needed",
          "type": "uint256"
        }
      ],
      "name": "ERC20InsufficientAllowance",
      "type": "error"
    },
    {
      "inputs": [
        {
          "internalType": "address",
          "name": "sender",
          "type": "address"
        },
        {
          "internalType": "uint256",
          "name": "balance",
          "type": "uint256"
        },
        {
          "internalType": "uint256",
          "name": "needed",
          "type": "uint256"
        }
      ],
      "name": "ERC20InsufficientBalance",
      "type": "error"
    },
    {
      "inputs": [
        {
          "internalType": "address",
          "name": "approver",
          "type": "address"
        }
      ],
      "name": "ERC20InvalidApprover",
      "type": "error"
    },
    {
      "inputs": [
        {
          "internalType": "uint256",
          "name": "cap",
          "type": "uint256"
        }
      ],
      "name": "ERC20InvalidCap",
      "type": "error"
    },
    {
      "inputs": [
        {
          "internalType": "address",
          "name": "receiver",
          "type": "address"
        }
      ],
      "name": "ERC20InvalidReceiver",
      "type": "error"
    },
    {
      "inputs": [
        {
          "internalType": "address",
          "name": "sender",
          "type": "address"
        }
      ],
      "name": "ERC20InvalidSender",
      "type": "error"
    },
    {
      "inputs": [
        {
          "internalType": "address",
          "name": "spender",
          "type": "address"
        }
      ],
      "name": "ERC20InvalidSpender",
      "type": "error"
    },
    {
      "anonymous": false,
      "inputs": [
        {
          "indexed": true,
          "internalType": "address",
          "name": "initiator",
          "type": "address"
        },
        {
          "indexed": false,
          "internalType": "bytes32",
          "name": "role",
          "type": "bytes32"
        },
        {
          "indexed": false,
          "internalType": "string",
          "name": "message",
          "type": "string"
        },
        {
          "indexed": false,
          "internalType": "uint256",
          "name": "amount",
          "type": "uint256"
        }
      ],
      "name": "Action",
      "type": "event"
    },
    {
      "anonymous": false,
      "inputs": [
        {
          "indexed": true,
          "internalType": "address",
          "name": "owner",
          "type": "address"
        },
        {
          "indexed": true,
          "internalType": "address",
          "name": "spender",
          "type": "address"
        },
        {
          "indexed": false,
          "internalType": "uint256",
          "name": "value",
          "type": "uint256"
        }
      ],
      "name": "Approval",
      "type": "event"
    },
    {
      "anonymous": false,
      "inputs": [
        {
          "indexed": false,
          "internalType": "uint256",
          "name": "protocolId",
          "type": "uint256"
        },
        {
          "indexed": false,
          "internalType": "string",
          "name": "message",
          "type": "string"
        }
      ],
      "name": "Return",
      "type": "event"
    },
    {
      "anonymous": false,
      "inputs": [
        {
          "indexed": true,
          "internalType": "bytes32",
          "name": "role",
          "type": "bytes32"
        },
        {
          "indexed": true,
          "internalType": "bytes32",
          "name": "previousAdminRole",
          "type": "bytes32"
        },
        {
          "indexed": true,
          "internalType": "bytes32",
          "name": "newAdminRole",
          "type": "bytes32"
        }
      ],
      "name": "RoleAdminChanged",
      "type": "event"
    },
    {
      "anonymous": false,
      "inputs": [
        {
          "indexed": true,
          "internalType": "bytes32",
          "name": "role",
          "type": "bytes32"
        },
        {
          "indexed": true,
          "internalType": "address",
          "name": "account",
          "type": "address"
        },
        {
          "indexed": true,
          "internalType": "address",
          "name": "sender",
          "type": "address"
        }
      ],
      "name": "RoleGranted",
      "type": "event"
    },
    {
      "anonymous": false,
      "inputs": [
        {
          "indexed": true,
          "internalType": "bytes32",
          "name": "role",
          "type": "bytes32"
        },
        {
          "indexed": true,
          "internalType": "address",
          "name": "account",
          "type": "address"
        },
        {
          "indexed": true,
          "internalType": "address",
          "name": "sender",
          "type": "address"
        }
      ],
      "name": "RoleRevoked",
      "type": "event"
    },
    {
      "anonymous": false,
      "inputs": [
        {
          "indexed": true,
          "internalType": "address",
          "name": "from",
          "type": "address"
        },
        {
          "indexed": true,
          "internalType": "address",
          "name": "to",
          "type": "address"
        },
        {
          "indexed": false,
          "internalType": "uint256",
          "name": "value",
          "type": "uint256"
        }
      ],
      "name": "Transfer",
      "type": "event"
    },
    {
      "inputs": [],
      "name": "DEFAULT_ADMIN_ROLE",
      "outputs": [
        {
          "internalType": "bytes32",
          "name": "",
          "type": "bytes32"
        }
      ],
      "stateMutability": "view",
      "type": "function"
    },
    {
      "inputs": [
        {
          "internalType": "address",
          "name": "owner",
          "type": "address"
        },
        {
          "internalType": "address",
          "name": "spender",
          "type": "address"
        }
      ],
      "name": "allowance",
      "outputs": [
        {
          "internalType": "uint256",
          "name": "",
          "type": "uint256"
        }
      ],
      "stateMutability": "view",
      "type": "function"
    },
    {
      "inputs": [
        {
          "internalType": "address",
          "name": "spender",
          "type": "address"
        },
        {
          "internalType": "uint256",
          "name": "value",
          "type": "uint256"
        }
      ],
      "name": "approve",
      "outputs": [
        {
          "internalType": "bool",
          "name": "",
          "type": "bool"
        }
      ],
      "stateMutability": "nonpayable",
      "type": "function"
    },
    {
      "inputs": [
        {
          "internalType": "address",
          "name": "account",
          "type": "address"
        }
      ],
      "name": "balanceOf",
      "outputs": [
        {
          "internalType": "uint256",
          "name": "",
          "type": "uint256"
        }
      ],
      "stateMutability": "view",
      "type": "function"
    },
    {
      "inputs": [],
      "name": "cap",
      "outputs": [
        {
          "internalType": "uint256",
          "name": "",
          "type": "uint256"
        }
      ],
      "stateMutability": "view",
      "type": "function"
    },
    {
      "inputs": [],
      "name": "contribute",
      "outputs": [],
      "stateMutability": "payable",
      "type": "function"
    },
    {
      "inputs": [
        {
          "internalType": "string",
          "name": "title",
          "type": "string"
        },
        {
          "internalType": "string",
          "name": "description",
          "type": "string"
        }
      ],
      "name": "createProtocol",
      "outputs": [],
      "stateMutability": "nonpayable",
      "type": "function"
    },
    {
      "inputs": [],
      "name": "decimals",
      "outputs": [
        {
          "internalType": "uint8",
          "name": "",
          "type": "uint8"
        }
      ],
      "stateMutability": "view",
      "type": "function"
    },
    {
      "inputs": [
        {
          "internalType": "uint256",
          "name": "protocolId",
          "type": "uint256"
        }
      ],
      "name": "executeProposal",
      "outputs": [
        {
          "internalType": "bool",
          "name": "",
          "type": "bool"
        }
      ],
      "stateMutability": "nonpayable",
      "type": "function"
    },
    {
      "inputs": [],
      "name": "getContributions",
      "outputs": [
        {
          "internalType": "uint256",
          "name": "",
          "type": "uint256"
        }
      ],
      "stateMutability": "view",
      "type": "function"
    },
    {
      "inputs": [
        {
          "internalType": "uint256",
          "name": "protocolId",
          "type": "uint256"
        }
      ],
      "name": "getProtocol",
      "outputs": [
        {
          "components": [
            {
              "internalType": "uint256",
              "name": "id",
              "type": "uint256"
            },
            {
              "internalType": "uint256",
              "name": "duration",
              "type": "uint256"
            },
            {
              "internalType": "uint256",
              "name": "upvotes",
              "type": "uint256"
            },
            {
              "internalType": "uint256",
              "name": "downvotes",
              "type": "uint256"
            },
            {
              "internalType": "string",
              "name": "title",
              "type": "string"
            },
            {
              "internalType": "string",
              "name": "description",
              "type": "string"
            },
            {
              "internalType": "bool",
              "name": "passed",
              "type": "bool"
            },
            {
              "internalType": "bool",
              "name": "decided",
              "type": "bool"
            },
            {
              "internalType": "address payable",
              "name": "beneficiary",
              "type": "address"
            },
            {
              "internalType": "address",
              "name": "proposer",
              "type": "address"
            },
            {
              "internalType": "address",
              "name": "executor",
              "type": "address"
            }
          ],
          "internalType": "struct DAO.ProtocolStruct",
          "name": "",
          "type": "tuple"
        }
      ],
      "stateMutability": "view",
      "type": "function"
    },
    {
      "inputs": [],
      "name": "getProtocols",
      "outputs": [
        {
          "components": [
            {
              "internalType": "uint256",
              "name": "id",
              "type": "uint256"
            },
            {
              "internalType": "uint256",
              "name": "duration",
              "type": "uint256"
            },
            {
              "internalType": "uint256",
              "name": "upvotes",
              "type": "uint256"
            },
            {
              "internalType": "uint256",
              "name": "downvotes",
              "type": "uint256"
            },
            {
              "internalType": "string",
              "name": "title",
              "type": "string"
            },
            {
              "internalType": "string",
              "name": "description",
              "type": "string"
            },
            {
              "internalType": "bool",
              "name": "passed",
              "type": "bool"
            },
            {
              "internalType": "bool",
              "name": "decided",
              "type": "bool"
            },
            {
              "internalType": "address payable",
              "name": "beneficiary",
              "type": "address"
            },
            {
              "internalType": "address",
              "name": "proposer",
              "type": "address"
            },
            {
              "internalType": "address",
              "name": "executor",
              "type": "address"
            }
          ],
          "internalType": "struct DAO.ProtocolStruct[]",
          "name": "protocols",
          "type": "tuple[]"
        }
      ],
      "stateMutability": "view",
      "type": "function"
    },
    {
      "inputs": [
        {
          "internalType": "bytes32",
          "name": "role",
          "type": "bytes32"
        }
      ],
      "name": "getRoleAdmin",
      "outputs": [
        {
          "internalType": "bytes32",
          "name": "",
          "type": "bytes32"
        }
      ],
      "stateMutability": "view",
      "type": "function"
    },
    {
      "inputs": [],
      "name": "getStakeholderTokens",
      "outputs": [
        {
          "internalType": "uint256",
          "name": "",
          "type": "uint256"
        }
      ],
      "stateMutability": "view",
      "type": "function"
    },
    {
      "inputs": [],
      "name": "getStakeholderVotes",
      "outputs": [
        {
          "internalType": "uint256[]",
          "name": "",
          "type": "uint256[]"
        }
      ],
      "stateMutability": "view",
      "type": "function"
    },
    {
      "inputs": [
        {
          "internalType": "uint256",
          "name": "protocolId",
          "type": "uint256"
        }
      ],
      "name": "getVotesOf",
      "outputs": [
        {
          "components": [
            {
              "internalType": "address",
              "name": "voter",
              "type": "address"
            },
            {
              "internalType": "uint256",
              "name": "timestamp",
              "type": "uint256"
            },
            {
              "internalType": "bool",
              "name": "choosen",
              "type": "bool"
            },
            {
              "internalType": "uint256",
              "name": "voteCost",
              "type": "uint256"
            },
            {
              "internalType": "uint256",
              "name": "numVotes",
              "type": "uint256"
            }
          ],
          "internalType": "struct DAO.VotedStruct[]",
          "name": "",
          "type": "tuple[]"
        }
      ],
      "stateMutability": "view",
      "type": "function"
    },
    {
      "inputs": [
        {
          "internalType": "bytes32",
          "name": "role",
          "type": "bytes32"
        },
        {
          "internalType": "address",
          "name": "account",
          "type": "address"
        }
      ],
      "name": "grantRole",
      "outputs": [],
      "stateMutability": "nonpayable",
      "type": "function"
    },
    {
      "inputs": [
        {
          "internalType": "bytes32",
          "name": "role",
          "type": "bytes32"
        },
        {
          "internalType": "address",
          "name": "account",
          "type": "address"
        }
      ],
      "name": "hasRole",
      "outputs": [
        {
          "internalType": "bool",
          "name": "",
          "type": "bool"
        }
      ],
      "stateMutability": "view",
      "type": "function"
    },
    {
      "inputs": [],
      "name": "initialStakeholderTokenAmount",
      "outputs": [
        {
          "internalType": "uint256",
          "name": "",
          "type": "uint256"
        }
      ],
      "stateMutability": "view",
      "type": "function"
    },
    {
      "inputs": [],
      "name": "isStakeholder",
      "outputs": [
        {
          "internalType": "bool",
          "name": "",
          "type": "bool"
        }
      ],
      "stateMutability": "view",
      "type": "function"
    },
    {
      "inputs": [],
      "name": "name",
      "outputs": [
        {
          "internalType": "string",
          "name": "",
          "type": "string"
        }
      ],
      "stateMutability": "view",
      "type": "function"
    },
    {
      "inputs": [
        {
          "internalType": "uint256",
          "name": "protocolId",
          "type": "uint256"
        },
        {
          "internalType": "bool",
          "name": "choosen",
          "type": "bool"
        },
        {
          "internalType": "uint256",
          "name": "votesToAcquire",
          "type": "uint256"
        }
      ],
      "name": "performVote",
      "outputs": [],
      "stateMutability": "nonpayable",
      "type": "function"
    },
    {
      "inputs": [
        {
          "internalType": "bytes32",
          "name": "role",
          "type": "bytes32"
        },
        {
          "internalType": "address",
          "name": "callerConfirmation",
          "type": "address"
        }
      ],
      "name": "renounceRole",
      "outputs": [],
      "stateMutability": "nonpayable",
      "type": "function"
    },
    {
      "inputs": [
        {
          "internalType": "bytes32",
          "name": "role",
          "type": "bytes32"
        },
        {
          "internalType": "address",
          "name": "account",
          "type": "address"
        }
      ],
      "name": "revokeRole",
      "outputs": [],
      "stateMutability": "nonpayable",
      "type": "function"
    },
    {
      "inputs": [
        {
          "internalType": "bytes4",
          "name": "interfaceId",
          "type": "bytes4"
        }
      ],
      "name": "supportsInterface",
      "outputs": [
        {
          "internalType": "bool",
          "name": "",
          "type": "bool"
        }
      ],
      "stateMutability": "view",
      "type": "function"
    },
    {
      "inputs": [],
      "name": "symbol",
      "outputs": [
        {
          "internalType": "string",
          "name": "",
          "type": "string"
        }
      ],
      "stateMutability": "view",
      "type": "function"
    },
    {
      "inputs": [],
      "name": "totalSupply",
      "outputs": [
        {
          "internalType": "uint256",
          "name": "",
          "type": "uint256"
        }
      ],
      "stateMutability": "view",
      "type": "function"
    },
    {
      "inputs": [
        {
          "internalType": "address",
          "name": "to",
          "type": "address"
        },
        {
          "internalType": "uint256",
          "name": "value",
          "type": "uint256"
        }
      ],
      "name": "transfer",
      "outputs": [
        {
          "internalType": "bool",
          "name": "",
          "type": "bool"
        }
      ],
      "stateMutability": "nonpayable",
      "type": "function"
    },
    {
      "inputs": [
        {
          "internalType": "address",
          "name": "from",
          "type": "address"
        },
        {
          "internalType": "address",
          "name": "to",
          "type": "address"
        },
        {
          "internalType": "uint256",
          "name": "value",
          "type": "uint256"
        }
      ],
      "name": "transferFrom",
      "outputs": [
        {
          "internalType": "bool",
          "name": "",
          "type": "bool"
        }
      ],
      "stateMutability": "nonpayable",
      "type": "function"
    }
  ],
  "bytecode": "0x6101006040527ff4bb84e1768dd286358a736d195a0b228621173f655a73b89bf8b191ed0ba07d60a0908152507fa0bb1af1c90aa52ed052b92714ff0087008cc720049bf1af77cca2600b31e80c60c09081525061025863ffffffff1660e09063ffffffff1681525030600760006101000a81548173ffffffffffffffffffffffffffffffffffffffff021916908373ffffffffffffffffffffffffffffffffffffffff16021790555069010f0cf064dd59200000600855348015620000c457600080fd5b506a084595161401484a0000006040518060400160405280600f81526020017f476f7665726e616e6365546f6b656e00000000000000000000000000000000008152506040518060400160405280600281526020017f475400000000000000000000000000000000000000000000000000000000000081525081600490816200014e919062000435565b50806005908162000160919062000435565b50505060008103620001ac5760006040517f392e1e27000000000000000000000000000000000000000000000000000000008152600401620001a391906200055f565b60405180910390fd5b8060808181525050506200057c565b600081519050919050565b7f4e487b7100000000000000000000000000000000000000000000000000000000600052604160045260246000fd5b7f4e487b7100000000000000000000000000000000000000000000000000000000600052602260045260246000fd5b600060028204905060018216806200023d57607f821691505b602082108103620002535762000252620001f5565b5b50919050565b60008190508160005260206000209050919050565b60006020601f8301049050919050565b600082821b905092915050565b600060088302620002bd7fffffffffffffffffffffffffffffffffffffffffffffffffffffffffffffffff826200027e565b620002c986836200027e565b95508019841693508086168417925050509392505050565b6000819050919050565b6000819050919050565b600062000316620003106200030a84620002e1565b620002eb565b620002e1565b9050919050565b6000819050919050565b6200033283620002f5565b6200034a62000341826200031d565b8484546200028b565b825550505050565b600090565b6200036162000352565b6200036e81848462000327565b505050565b5b8181101562000396576200038a60008262000357565b60018101905062000374565b5050565b601f821115620003e557620003af8162000259565b620003ba846200026e565b81016020851015620003ca578190505b620003e2620003d9856200026e565b83018262000373565b50505b505050565b600082821c905092915050565b60006200040a60001984600802620003ea565b1980831691505092915050565b6000620004258383620003f7565b9150826002028217905092915050565b6200044082620001bb565b67ffffffffffffffff8111156200045c576200045b620001c6565b5b62000468825462000224565b620004758282856200039a565b600060209050601f831160018114620004ad576000841562000498578287015190505b620004a4858262000417565b86555062000514565b601f198416620004bd8662000259565b60005b82811015620004e757848901518255600182019150602085019450602081019050620004c0565b8683101562000507578489015162000503601f891682620003f7565b8355505b6001600288020188555050505b505050505050565b6000819050919050565b600062000547620005416200053b846200051c565b620002eb565b620002e1565b9050919050565b620005598162000526565b82525050565b60006020820190506200057660008301846200054e565b92915050565b60805160a05160c05160e051614572620006116000396000610f5e015260008181611b6e0152611d470152600081816108ad01528181610c2a01528181610db801528181610fe30152818161106001528181611112015281816114000152818161197a01528181611aa001528181611af101528181611c0001528181611ce40152611dbc01526000610cfb01526145726000f3fe6080604052600436106101c25760003560e01c80634d759491116100f7578063a22f1db711610095578063d7bb99ba11610064578063d7bb99ba146106a4578063dd62ed3e146106ae578063dda0a81a146106eb578063f434bb6814610716576101c2565b8063a22f1db7146105e8578063a9059cbb14610613578063c02146ac14610650578063d547741f1461067b576101c2565b8063783ec7f0116100d1578063783ec7f01461051857806391d148541461055557806395d89b4114610592578063a217fddf146105bd576101c2565b80634d7594911461047557806369a136dc1461049e57806370a08231146104db576101c2565b8063248a9ca311610164578063355274ea1161013e578063355274ea146103cd57806336568abe146103f8578063458fb11a146104215780634888f4011461044a576101c2565b8063248a9ca31461033c5780632f2ff15d14610379578063313ce567146103a2576101c2565b80630d61b519116101a05780630d61b5191461026c57806314e16d90146102a957806318160ddd146102d457806323b872dd146102ff576101c2565b806301ffc9a7146101c757806306fdde0314610204578063095ea7b31461022f575b600080fd5b3480156101d357600080fd5b506101ee60048036038101906101e99190612e04565b610741565b6040516101fb9190612e4c565b60405180910390f35b34801561021057600080fd5b506102196107bb565b6040516102269190612ef7565b60405180910390f35b34801561023b57600080fd5b5061025660048036038101906102519190612fad565b61084d565b6040516102639190612e4c565b60405180910390f35b34801561027857600080fd5b50610293600480360381019061028e9190612fed565b610870565b6040516102a09190612e4c565b60405180910390f35b3480156102b557600080fd5b506102be610c6e565b6040516102cb9190613029565b60405180910390f35b3480156102e057600080fd5b506102e9610c74565b6040516102f69190613029565b60405180910390f35b34801561030b57600080fd5b5061032660048036038101906103219190613044565b610c7e565b6040516103339190612e4c565b60405180910390f35b34801561034857600080fd5b50610363600480360381019061035e91906130cd565b610cad565b6040516103709190613109565b60405180910390f35b34801561038557600080fd5b506103a0600480360381019061039b9190613124565b610ccc565b005b3480156103ae57600080fd5b506103b7610cee565b6040516103c49190613180565b60405180910390f35b3480156103d957600080fd5b506103e2610cf7565b6040516103ef9190613029565b60405180910390f35b34801561040457600080fd5b5061041f600480360381019061041a9190613124565b610d1f565b005b34801561042d57600080fd5b5061044860048036038101906104439190613200565b610d9a565b005b34801561045657600080fd5b5061045f611023565b60405161046c9190613029565b60405180910390f35b34801561048157600080fd5b5061049c600480360381019061049791906132ad565b6110d7565b005b3480156104aa57600080fd5b506104c560048036038101906104c09190612fed565b61143e565b6040516104d29190613444565b60405180910390f35b3480156104e757600080fd5b5061050260048036038101906104fd9190613466565b61153f565b60405161050f9190613029565b60405180910390f35b34801561052457600080fd5b5061053f600480360381019061053a9190612fed565b611588565b60405161054c91906135f4565b60405180910390f35b34801561056157600080fd5b5061057c60048036038101906105779190613124565b61183a565b6040516105899190612e4c565b60405180910390f35b34801561059e57600080fd5b506105a76118a4565b6040516105b49190612ef7565b60405180910390f35b3480156105c957600080fd5b506105d2611936565b6040516105df9190613109565b60405180910390f35b3480156105f457600080fd5b506105fd61193d565b60405161060a91906136c5565b60405180910390f35b34801561061f57600080fd5b5061063a60048036038101906106359190612fad565b611a76565b6040516106479190612e4c565b60405180910390f35b34801561065c57600080fd5b50610665611a99565b6040516106729190612e4c565b60405180910390f35b34801561068757600080fd5b506106a2600480360381019061069d9190613124565b611aca565b005b6106ac611aec565b005b3480156106ba57600080fd5b506106d560048036038101906106d091906136e7565b611df5565b6040516106e29190613029565b60405180910390f35b3480156106f757600080fd5b50610700611e7c565b60405161070d9190613029565b60405180910390f35b34801561072257600080fd5b5061072b611ec3565b60405161073891906138df565b60405180910390f35b60007f7965db0b000000000000000000000000000000000000000000000000000000007bffffffffffffffffffffffffffffffffffffffffffffffffffffffff1916827bffffffffffffffffffffffffffffffffffffffffffffffffffffffff191614806107b457506107b382612202565b5b9050919050565b6060600480546107ca90613930565b80601f01602080910402602001604051908101604052809291908181526020018280546107f690613930565b80156108435780601f1061081857610100808354040283529160200191610843565b820191906000526020600020905b81548152906001019060200180831161082657829003601f168201915b5050505050905090565b60008061085861226c565b9050610865818585612274565b600191505092915050565b60006040518060400160405280601f81526020017f556e617574686f72697a65643a205374616b65686f6c64657273206f6e6c79008152506108d27f00000000000000000000000000000000000000000000000000000000000000003361183a565b8190610914576040517f08c379a000000000000000000000000000000000000000000000000000000000815260040161090b9190612ef7565b60405180910390fd5b50600060096000858152602001908152602001600020905080600101544211610972576040517f08c379a0000000000000000000000000000000000000000000000000000000008152600401610969906139ad565b60405180910390fd5b8060060160019054906101000a900460ff16156109c4576040517f08c379a00000000000000000000000000000000000000000000000000000000081526004016109bb90613a19565b60405180910390fd5b600080600b6000878152602001908152602001600020905060005b8180549050811015610a68578181815481106109fe576109fd613a39565b5b906000526020600020906005020160020160009054906101000a900460ff1615610a5557818181548110610a3557610a34613a39565b5b90600052602060002090600502016003015483610a529190613a97565b92505b8080610a6090613acb565b9150506109df565b506000821115610b095760005b8180549050811015610b0757610af430838381548110610a9857610a97613a39565b5b906000526020600020906005020160000160009054906101000a900473ffffffffffffffffffffffffffffffffffffffff16848481548110610add57610adc613a39565b5b906000526020600020906005020160030154612286565b8080610aff90613acb565b915050610a75565b505b7f02685958c58d45920d35ee4c7f9c1c59d7b83e0d9dbf3b60a45c476247f17d4286604051610b389190613b85565b60405180910390a1826003015483600201541115610b725760018360060160006101000a81548160ff021916908315150217905550610b90565b60008360060160006101000a81548160ff0219169083151502179055505b60018360060160016101000a81548160ff021916908315150217905550338360080160006101000a81548173ffffffffffffffffffffffffffffffffffffffff021916908373ffffffffffffffffffffffffffffffffffffffff1602179055503373ffffffffffffffffffffffffffffffffffffffff167fbd255831dfd53f19c41bc6786c86bb67c444b5eeebb700e4e4d6583a95ddb80f7f00000000000000000000000000000000000000000000000000000000000000006000604051610c59929190613c44565b60405180910390a26001945050505050919050565b60085481565b6000600354905090565b600080610c8961226c565b9050610c9685828561237a565b610ca1858585612286565b60019150509392505050565b6000806000838152602001908152602001600020600101549050919050565b610cd582610cad565b610cde8161240e565b610ce88383612422565b50505050565b60006012905090565b60007f0000000000000000000000000000000000000000000000000000000000000000905090565b610d2761226c565b73ffffffffffffffffffffffffffffffffffffffff168173ffffffffffffffffffffffffffffffffffffffff1614610d8b576040517f6697b23200000000000000000000000000000000000000000000000000000000815260040160405180910390fd5b610d958282612513565b505050565b6040518060600160405280602f815260200161450e602f9139610ddd7f00000000000000000000000000000000000000000000000000000000000000003361183a565b8190610e1f576040517f08c379a0000000000000000000000000000000000000000000000000000000008152600401610e169190612ef7565b60405180910390fd5b50670de0b6b3a7640000610e323361153f565b1015610e73576040517f08c379a0000000000000000000000000000000000000000000000000000000008152600401610e6a90613cf2565b60405180910390fd5b600060066000815480929190610e8890613acb565b9190505590506000600960008381526020019081526020016000209050818160000181905550338160070160006101000a81548173ffffffffffffffffffffffffffffffffffffffff021916908373ffffffffffffffffffffffffffffffffffffffff1602179055508686826004019182610f04929190613eee565b508484826005019182610f18929190613eee565b50308160060160026101000a81548173ffffffffffffffffffffffffffffffffffffffff021916908373ffffffffffffffffffffffffffffffffffffffff1602179055507f000000000000000000000000000000000000000000000000000000000000000063ffffffff1642610f8e9190613a97565b8160010181905550610fa93330670de0b6b3a7640000612286565b3373ffffffffffffffffffffffffffffffffffffffff167fbd255831dfd53f19c41bc6786c86bb67c444b5eeebb700e4e4d6583a95ddb80f7f0000000000000000000000000000000000000000000000000000000000000000600060405161101292919061400a565b60405180910390a250505050505050565b60006040518060400160405280601f81526020017f556e617574686f72697a65643a206e6f742061207374616b65686f6c646572008152506110857f00000000000000000000000000000000000000000000000000000000000000003361183a565b81906110c7576040517f08c379a00000000000000000000000000000000000000000000000000000000081526004016110be9190612ef7565b60405180910390fd5b506110d13361153f565b91505090565b6040518060400160405280601f81526020017f556e617574686f72697a65643a205374616b65686f6c64657273206f6e6c79008152506111377f00000000000000000000000000000000000000000000000000000000000000003361183a565b8190611179576040517f08c379a00000000000000000000000000000000000000000000000000000000081526004016111709190612ef7565b60405180910390fd5b50600060096000868152602001908152602001600020905061119a81612605565b6000670de0b6b3a76400008460026111b29190614179565b6111bc91906141c4565b9050806111c83361153f565b1015611209576040517f08c379a000000000000000000000000000000000000000000000000000000000815260040161120090614252565b60405180910390fd5b841561122f57838260020160008282546112239190613a97565b9250508190555061124b565b838260030160008282546112439190613a97565b925050819055505b600a60003373ffffffffffffffffffffffffffffffffffffffff1673ffffffffffffffffffffffffffffffffffffffff16815260200190815260200160002082600001549080600181540180825580915050600190039060005260206000200160009091909190915055600b6000836000015481526020019081526020016000206040518060a001604052803373ffffffffffffffffffffffffffffffffffffffff168152602001428152602001871515815260200183815260200186815250908060018154018082558091505060019003906000526020600020906005020160009091909190915060008201518160000160006101000a81548173ffffffffffffffffffffffffffffffffffffffff021916908373ffffffffffffffffffffffffffffffffffffffff1602179055506020820151816001015560408201518160020160006101000a81548160ff021916908315150217905550606082015181600301556080820151816004015550506113c6333083612286565b3373ffffffffffffffffffffffffffffffffffffffff167fbd255831dfd53f19c41bc6786c86bb67c444b5eeebb700e4e4d6583a95ddb80f7f00000000000000000000000000000000000000000000000000000000000000008360405161142e9291906142be565b60405180910390a2505050505050565b6060600b6000838152602001908152602001600020805480602002602001604051908101604052809291908181526020016000905b8282101561153457838290600052602060002090600502016040518060a00160405290816000820160009054906101000a900473ffffffffffffffffffffffffffffffffffffffff1673ffffffffffffffffffffffffffffffffffffffff1673ffffffffffffffffffffffffffffffffffffffff168152602001600182015481526020016002820160009054906101000a900460ff161515151581526020016003820154815260200160048201548152505081526020019060010190611473565b505050509050919050565b6000600160008373ffffffffffffffffffffffffffffffffffffffff1673ffffffffffffffffffffffffffffffffffffffff168152602001908152602001600020549050919050565b611590612d02565b6009600083815260200190815260200160002060405180610160016040529081600082015481526020016001820154815260200160028201548152602001600382015481526020016004820180546115e790613930565b80601f016020809104026020016040519081016040528092919081815260200182805461161390613930565b80156116605780601f1061163557610100808354040283529160200191611660565b820191906000526020600020905b81548152906001019060200180831161164357829003601f168201915b5050505050815260200160058201805461167990613930565b80601f01602080910402602001604051908101604052809291908181526020018280546116a590613930565b80156116f25780601f106116c7576101008083540402835291602001916116f2565b820191906000526020600020905b8154815290600101906020018083116116d557829003601f168201915b505050505081526020016006820160009054906101000a900460ff161515151581526020016006820160019054906101000a900460ff161515151581526020016006820160029054906101000a900473ffffffffffffffffffffffffffffffffffffffff1673ffffffffffffffffffffffffffffffffffffffff1673ffffffffffffffffffffffffffffffffffffffff1681526020016007820160009054906101000a900473ffffffffffffffffffffffffffffffffffffffff1673ffffffffffffffffffffffffffffffffffffffff1673ffffffffffffffffffffffffffffffffffffffff1681526020016008820160009054906101000a900473ffffffffffffffffffffffffffffffffffffffff1673ffffffffffffffffffffffffffffffffffffffff1673ffffffffffffffffffffffffffffffffffffffff16815250509050919050565b600080600084815260200190815260200160002060000160008373ffffffffffffffffffffffffffffffffffffffff1673ffffffffffffffffffffffffffffffffffffffff16815260200190815260200160002060009054906101000a900460ff16905092915050565b6060600580546118b390613930565b80601f01602080910402602001604051908101604052809291908181526020018280546118df90613930565b801561192c5780601f106119015761010080835404028352916020019161192c565b820191906000526020600020905b81548152906001019060200180831161190f57829003601f168201915b5050505050905090565b6000801b81565b60606040518060400160405280601f81526020017f556e617574686f72697a65643a206e6f742061207374616b65686f6c6465720081525061199f7f00000000000000000000000000000000000000000000000000000000000000003361183a565b81906119e1576040517f08c379a00000000000000000000000000000000000000000000000000000000081526004016119d89190612ef7565b60405180910390fd5b50600a60003373ffffffffffffffffffffffffffffffffffffffff1673ffffffffffffffffffffffffffffffffffffffff168152602001908152602001600020805480602002602001604051908101604052809291908181526020018280548015611a6b57602002820191906000526020600020905b815481526020019060010190808311611a57575b505050505091505090565b600080611a8161226c565b9050611a8e818585612286565b600191505092915050565b6000611ac57f00000000000000000000000000000000000000000000000000000000000000003361183a565b905090565b611ad382610cad565b611adc8161240e565b611ae68383612513565b50505050565b611b167f00000000000000000000000000000000000000000000000000000000000000003361183a565b611c8857600034600c60003373ffffffffffffffffffffffffffffffffffffffff1673ffffffffffffffffffffffffffffffffffffffff16815260200190815260200160002054611b679190613a97565b9050611b937f000000000000000000000000000000000000000000000000000000000000000033612422565b506706f05b59d3b200008110611c2b5780600c60003373ffffffffffffffffffffffffffffffffffffffff1673ffffffffffffffffffffffffffffffffffffffff16815260200190815260200160002081905550611bfb3369021e19e0c9bab240000061278a565b611c257f000000000000000000000000000000000000000000000000000000000000000033612422565b50611c82565b34600c60003373ffffffffffffffffffffffffffffffffffffffff1673ffffffffffffffffffffffffffffffffffffffff1681526020019081526020016000206000828254611c7a9190613a97565b925050819055505b50611cdf565b34600c60003373ffffffffffffffffffffffffffffffffffffffff1673ffffffffffffffffffffffffffffffffffffffff1681526020019081526020016000206000828254611cd79190613a97565b925050819055505b611d097f00000000000000000000000000000000000000000000000000000000000000003361183a565b611d82573373ffffffffffffffffffffffffffffffffffffffff167fbd255831dfd53f19c41bc6786c86bb67c444b5eeebb700e4e4d6583a95ddb80f7f000000000000000000000000000000000000000000000000000000000000000034604051611d75929190614346565b60405180910390a2611df3565b3373ffffffffffffffffffffffffffffffffffffffff167fbd255831dfd53f19c41bc6786c86bb67c444b5eeebb700e4e4d6583a95ddb80f7f000000000000000000000000000000000000000000000000000000000000000034604051611dea929190614346565b60405180910390a25b565b6000600260008473ffffffffffffffffffffffffffffffffffffffff1673ffffffffffffffffffffffffffffffffffffffff16815260200190815260200160002060008373ffffffffffffffffffffffffffffffffffffffff1673ffffffffffffffffffffffffffffffffffffffff16815260200190815260200160002054905092915050565b6000600c60003373ffffffffffffffffffffffffffffffffffffffff1673ffffffffffffffffffffffffffffffffffffffff16815260200190815260200160002054905090565b606060065467ffffffffffffffff811115611ee157611ee0613d1d565b5b604051908082528060200260200182016040528015611f1a57816020015b611f07612d02565b815260200190600190039081611eff5790505b50905060005b6006548110156121fe57600960008281526020019081526020016000206040518061016001604052908160008201548152602001600182015481526020016002820154815260200160038201548152602001600482018054611f8190613930565b80601f0160208091040260200160405190810160405280929190818152602001828054611fad90613930565b8015611ffa5780601f10611fcf57610100808354040283529160200191611ffa565b820191906000526020600020905b815481529060010190602001808311611fdd57829003601f168201915b5050505050815260200160058201805461201390613930565b80601f016020809104026020016040519081016040528092919081815260200182805461203f90613930565b801561208c5780601f106120615761010080835404028352916020019161208c565b820191906000526020600020905b81548152906001019060200180831161206f57829003601f168201915b505050505081526020016006820160009054906101000a900460ff161515151581526020016006820160019054906101000a900460ff161515151581526020016006820160029054906101000a900473ffffffffffffffffffffffffffffffffffffffff1673ffffffffffffffffffffffffffffffffffffffff1673ffffffffffffffffffffffffffffffffffffffff1681526020016007820160009054906101000a900473ffffffffffffffffffffffffffffffffffffffff1673ffffffffffffffffffffffffffffffffffffffff1673ffffffffffffffffffffffffffffffffffffffff1681526020016008820160009054906101000a900473ffffffffffffffffffffffffffffffffffffffff1673ffffffffffffffffffffffffffffffffffffffff1673ffffffffffffffffffffffffffffffffffffffff16815250508282815181106121e0576121df613a39565b5b602002602001018190525080806121f690613acb565b915050611f20565b5090565b60007f01ffc9a7000000000000000000000000000000000000000000000000000000007bffffffffffffffffffffffffffffffffffffffffffffffffffffffff1916827bffffffffffffffffffffffffffffffffffffffffffffffffffffffff1916149050919050565b600033905090565b612281838383600161280c565b505050565b600073ffffffffffffffffffffffffffffffffffffffff168373ffffffffffffffffffffffffffffffffffffffff16036122f85760006040517f96c6fd1e0000000000000000000000000000000000000000000000000000000081526004016122ef9190614391565b60405180910390fd5b600073ffffffffffffffffffffffffffffffffffffffff168273ffffffffffffffffffffffffffffffffffffffff160361236a5760006040517fec442f050000000000000000000000000000000000000000000000000000000081526004016123619190614391565b60405180910390fd5b6123758383836129e3565b505050565b60006123868484611df5565b90507fffffffffffffffffffffffffffffffffffffffffffffffffffffffffffffffff811461240857818110156123f8578281836040517ffb8f41b20000000000000000000000000000000000000000000000000000000081526004016123ef939291906143ac565b60405180910390fd5b6124078484848403600061280c565b5b50505050565b61241f8161241a61226c565b612a89565b50565b600061242e838361183a565b61250857600160008085815260200190815260200160002060000160008473ffffffffffffffffffffffffffffffffffffffff1673ffffffffffffffffffffffffffffffffffffffff16815260200190815260200160002060006101000a81548160ff0219169083151502179055506124a561226c565b73ffffffffffffffffffffffffffffffffffffffff168273ffffffffffffffffffffffffffffffffffffffff16847f2f8788117e7eff1d82e926ec794901d17c78024a50270940304540a733656f0d60405160405180910390a46001905061250d565b600090505b92915050565b600061251f838361183a565b156125fa57600080600085815260200190815260200160002060000160008473ffffffffffffffffffffffffffffffffffffffff1673ffffffffffffffffffffffffffffffffffffffff16815260200190815260200160002060006101000a81548160ff02191690831515021790555061259761226c565b73ffffffffffffffffffffffffffffffffffffffff168273ffffffffffffffffffffffffffffffffffffffff16847ff6391f5c32d9c69d2a47ea670b442974b53935d1edc7fd64eb21e047a839171b60405160405180910390a4600190506125ff565b600090505b92915050565b8060060160019054906101000a900460ff1680612626575042816001015411155b15612674576126388160000154610870565b506040517f08c379a000000000000000000000000000000000000000000000000000000000815260040161266b9061442f565b60405180910390fd5b6000600a60003373ffffffffffffffffffffffffffffffffffffffff1673ffffffffffffffffffffffffffffffffffffffff1681526020019081526020016000208054806020026020016040519081016040528092919081815260200182805480156126ff57602002820191906000526020600020905b8154815260200190600101908083116126eb575b5050505050905060005b81518110156127855781818151811061272557612724613a39565b5b6020026020010151836000015403612772576040517f08c379a00000000000000000000000000000000000000000000000000000000081526004016127699061449b565b60405180910390fd5b808061277d90613acb565b915050612709565b505050565b600073ffffffffffffffffffffffffffffffffffffffff168273ffffffffffffffffffffffffffffffffffffffff16036127fc5760006040517fec442f050000000000000000000000000000000000000000000000000000000081526004016127f39190614391565b60405180910390fd5b612808600083836129e3565b5050565b600073ffffffffffffffffffffffffffffffffffffffff168473ffffffffffffffffffffffffffffffffffffffff160361287e5760006040517fe602df050000000000000000000000000000000000000000000000000000000081526004016128759190614391565b60405180910390fd5b600073ffffffffffffffffffffffffffffffffffffffff168373ffffffffffffffffffffffffffffffffffffffff16036128f05760006040517f94280d620000000000000000000000000000000000000000000000000000000081526004016128e79190614391565b60405180910390fd5b81600260008673ffffffffffffffffffffffffffffffffffffffff1673ffffffffffffffffffffffffffffffffffffffff16815260200190815260200160002060008573ffffffffffffffffffffffffffffffffffffffff1673ffffffffffffffffffffffffffffffffffffffff1681526020019081526020016000208190555080156129dd578273ffffffffffffffffffffffffffffffffffffffff168473ffffffffffffffffffffffffffffffffffffffff167f8c5be1e5ebec7d5bd14f71427d1e84f3dd0314c0f7b2291e5b200ac8c7c3b925846040516129d49190613029565b60405180910390a35b50505050565b6129ee838383612ada565b600073ffffffffffffffffffffffffffffffffffffffff168373ffffffffffffffffffffffffffffffffffffffff1603612a84576000612a2c610cf7565b90506000612a38610c74565b905081811115612a815780826040517f9e79f854000000000000000000000000000000000000000000000000000000008152600401612a789291906144bb565b60405180910390fd5b50505b505050565b612a93828261183a565b612ad65780826040517fe2517d3f000000000000000000000000000000000000000000000000000000008152600401612acd9291906144e4565b60405180910390fd5b5050565b600073ffffffffffffffffffffffffffffffffffffffff168373ffffffffffffffffffffffffffffffffffffffff1603612b2c578060036000828254612b209190613a97565b92505081905550612c01565b6000600160008573ffffffffffffffffffffffffffffffffffffffff1673ffffffffffffffffffffffffffffffffffffffff16815260200190815260200160002054905081811015612bb9578381836040517fe450d38c000000000000000000000000000000000000000000000000000000008152600401612bb0939291906143ac565b60405180910390fd5b818103600160008673ffffffffffffffffffffffffffffffffffffffff1673ffffffffffffffffffffffffffffffffffffffff16815260200190815260200160002081905550505b600073ffffffffffffffffffffffffffffffffffffffff168273ffffffffffffffffffffffffffffffffffffffff1603612c4a5780600360008282540392505081905550612c98565b80600160008473ffffffffffffffffffffffffffffffffffffffff1673ffffffffffffffffffffffffffffffffffffffff168152602001908152602001600020600082825401925050819055505b8173ffffffffffffffffffffffffffffffffffffffff168373ffffffffffffffffffffffffffffffffffffffff167fddf252ad1be2c89b69c2b068fc378daa952ba7f163c4a11628f55a4df523b3ef83604051612cf59190613029565b60405180910390a3505050565b604051806101600160405280600081526020016000815260200160008152602001600081526020016060815260200160608152602001600015158152602001600015158152602001600073ffffffffffffffffffffffffffffffffffffffff168152602001600073ffffffffffffffffffffffffffffffffffffffff168152602001600073ffffffffffffffffffffffffffffffffffffffff1681525090565b600080fd5b600080fd5b60007fffffffff0000000000000000000000000000000000000000000000000000000082169050919050565b612de181612dac565b8114612dec57600080fd5b50565b600081359050612dfe81612dd8565b92915050565b600060208284031215612e1a57612e19612da2565b5b6000612e2884828501612def565b91505092915050565b60008115159050919050565b612e4681612e31565b82525050565b6000602082019050612e616000830184612e3d565b92915050565b600081519050919050565b600082825260208201905092915050565b60005b83811015612ea1578082015181840152602081019050612e86565b60008484015250505050565b6000601f19601f8301169050919050565b6000612ec982612e67565b612ed38185612e72565b9350612ee3818560208601612e83565b612eec81612ead565b840191505092915050565b60006020820190508181036000830152612f118184612ebe565b905092915050565b600073ffffffffffffffffffffffffffffffffffffffff82169050919050565b6000612f4482612f19565b9050919050565b612f5481612f39565b8114612f5f57600080fd5b50565b600081359050612f7181612f4b565b92915050565b6000819050919050565b612f8a81612f77565b8114612f9557600080fd5b50565b600081359050612fa781612f81565b92915050565b60008060408385031215612fc457612fc3612da2565b5b6000612fd285828601612f62565b9250506020612fe385828601612f98565b9150509250929050565b60006020828403121561300357613002612da2565b5b600061301184828501612f98565b91505092915050565b61302381612f77565b82525050565b600060208201905061303e600083018461301a565b92915050565b60008060006060848603121561305d5761305c612da2565b5b600061306b86828701612f62565b935050602061307c86828701612f62565b925050604061308d86828701612f98565b9150509250925092565b6000819050919050565b6130aa81613097565b81146130b557600080fd5b50565b6000813590506130c7816130a1565b92915050565b6000602082840312156130e3576130e2612da2565b5b60006130f1848285016130b8565b91505092915050565b61310381613097565b82525050565b600060208201905061311e60008301846130fa565b92915050565b6000806040838503121561313b5761313a612da2565b5b6000613149858286016130b8565b925050602061315a85828601612f62565b9150509250929050565b600060ff82169050919050565b61317a81613164565b82525050565b60006020820190506131956000830184613171565b92915050565b600080fd5b600080fd5b600080fd5b60008083601f8401126131c0576131bf61319b565b5b8235905067ffffffffffffffff8111156131dd576131dc6131a0565b5b6020830191508360018202830111156131f9576131f86131a5565b5b9250929050565b6000806000806040858703121561321a57613219612da2565b5b600085013567ffffffffffffffff81111561323857613237612da7565b5b613244878288016131aa565b9450945050602085013567ffffffffffffffff81111561326757613266612da7565b5b613273878288016131aa565b925092505092959194509250565b61328a81612e31565b811461329557600080fd5b50565b6000813590506132a781613281565b92915050565b6000806000606084860312156132c6576132c5612da2565b5b60006132d486828701612f98565b93505060206132e586828701613298565b92505060406132f686828701612f98565b9150509250925092565b600081519050919050565b600082825260208201905092915050565b6000819050602082019050919050565b61333581612f39565b82525050565b61334481612f77565b82525050565b61335381612e31565b82525050565b60a08201600082015161336f600085018261332c565b506020820151613382602085018261333b565b506040820151613395604085018261334a565b5060608201516133a8606085018261333b565b5060808201516133bb608085018261333b565b50505050565b60006133cd8383613359565b60a08301905092915050565b6000602082019050919050565b60006133f182613300565b6133fb818561330b565b93506134068361331c565b8060005b8381101561343757815161341e88826133c1565b9750613429836133d9565b92505060018101905061340a565b5085935050505092915050565b6000602082019050818103600083015261345e81846133e6565b905092915050565b60006020828403121561347c5761347b612da2565b5b600061348a84828501612f62565b91505092915050565b600082825260208201905092915050565b60006134af82612e67565b6134b98185613493565b93506134c9818560208601612e83565b6134d281612ead565b840191505092915050565b60006134e882612f19565b9050919050565b6134f8816134dd565b82525050565b600061016083016000830151613517600086018261333b565b50602083015161352a602086018261333b565b50604083015161353d604086018261333b565b506060830151613550606086018261333b565b506080830151848203608086015261356882826134a4565b91505060a083015184820360a086015261358282826134a4565b91505060c083015161359760c086018261334a565b5060e08301516135aa60e086018261334a565b506101008301516135bf6101008601826134ef565b506101208301516135d461012086018261332c565b506101408301516135e961014086018261332c565b508091505092915050565b6000602082019050818103600083015261360e81846134fe565b905092915050565b600081519050919050565b600082825260208201905092915050565b6000819050602082019050919050565b600061364e838361333b565b60208301905092915050565b6000602082019050919050565b600061367282613616565b61367c8185613621565b935061368783613632565b8060005b838110156136b857815161369f8882613642565b97506136aa8361365a565b92505060018101905061368b565b5085935050505092915050565b600060208201905081810360008301526136df8184613667565b905092915050565b600080604083850312156136fe576136fd612da2565b5b600061370c85828601612f62565b925050602061371d85828601612f62565b9150509250929050565b600081519050919050565b600082825260208201905092915050565b6000819050602082019050919050565b60006101608301600083015161376c600086018261333b565b50602083015161377f602086018261333b565b506040830151613792604086018261333b565b5060608301516137a5606086018261333b565b50608083015184820360808601526137bd82826134a4565b91505060a083015184820360a08601526137d782826134a4565b91505060c08301516137ec60c086018261334a565b5060e08301516137ff60e086018261334a565b506101008301516138146101008601826134ef565b5061012083015161382961012086018261332c565b5061014083015161383e61014086018261332c565b508091505092915050565b60006138558383613753565b905092915050565b6000602082019050919050565b600061387582613727565b61387f8185613732565b93508360208202850161389185613743565b8060005b858110156138cd57848403895281516138ae8582613849565b94506138b98361385d565b925060208a01995050600181019050613895565b50829750879550505050505092915050565b600060208201905081810360008301526138f9818461386a565b905092915050565b7f4e487b7100000000000000000000000000000000000000000000000000000000600052602260045260246000fd5b6000600282049050600182168061394857607f821691505b60208210810361395b5761395a613901565b5b50919050565b7f50726f746f636f6c207374696c6c206f6e676f696e6700000000000000000000600082015250565b6000613997601683612e72565b91506139a282613961565b602082019050919050565b600060208201905081810360008301526139c68161398a565b9050919050565b7f50726f746f636f6c2064657363696f6e20686173206265656e206d6164650000600082015250565b6000613a03601e83612e72565b9150613a0e826139cd565b602082019050919050565b60006020820190508181036000830152613a32816139f6565b9050919050565b7f4e487b7100000000000000000000000000000000000000000000000000000000600052603260045260246000fd5b7f4e487b7100000000000000000000000000000000000000000000000000000000600052601160045260246000fd5b6000613aa282612f77565b9150613aad83612f77565b9250828201905080821115613ac557613ac4613a68565b5b92915050565b6000613ad682612f77565b91507fffffffffffffffffffffffffffffffffffffffffffffffffffffffffffffffff8203613b0857613b07613a68565b5b600182019050919050565b7f546f6b656e732072657475726e656420746f207265737065637469766520537460008201527f616b65686f6c6465727300000000000000000000000000000000000000000000602082015250565b6000613b6f602a83612e72565b9150613b7a82613b13565b604082019050919050565b6000604082019050613b9a600083018461301a565b8181036020830152613bab81613b62565b905092915050565b7f50524f504f53414c204558454355544544000000000000000000000000000000600082015250565b6000613be9601183612e72565b9150613bf482613bb3565b602082019050919050565b6000819050919050565b6000819050919050565b6000613c2e613c29613c2484613bff565b613c09565b612f77565b9050919050565b613c3e81613c13565b82525050565b6000606082019050613c5960008301856130fa565b8181036020830152613c6a81613bdc565b9050613c796040830184613c35565b9392505050565b7f496e7375666675696369656e742062616c6e636520666f722070726f746f636f60008201527f6c2070726f706f73616c00000000000000000000000000000000000000000000602082015250565b6000613cdc602a83612e72565b9150613ce782613c80565b604082019050919050565b60006020820190508181036000830152613d0b81613ccf565b9050919050565b600082905092915050565b7f4e487b7100000000000000000000000000000000000000000000000000000000600052604160045260246000fd5b60008190508160005260206000209050919050565b60006020601f8301049050919050565b600082821b905092915050565b600060088302613dae7fffffffffffffffffffffffffffffffffffffffffffffffffffffffffffffffff82613d71565b613db88683613d71565b95508019841693508086168417925050509392505050565b6000613deb613de6613de184612f77565b613c09565b612f77565b9050919050565b6000819050919050565b613e0583613dd0565b613e19613e1182613df2565b848454613d7e565b825550505050565b600090565b613e2e613e21565b613e39818484613dfc565b505050565b5b81811015613e5d57613e52600082613e26565b600181019050613e3f565b5050565b601f821115613ea257613e7381613d4c565b613e7c84613d61565b81016020851015613e8b578190505b613e9f613e9785613d61565b830182613e3e565b50505b505050565b600082821c905092915050565b6000613ec560001984600802613ea7565b1980831691505092915050565b6000613ede8383613eb4565b9150826002028217905092915050565b613ef88383613d12565b67ffffffffffffffff811115613f1157613f10613d1d565b5b613f1b8254613930565b613f26828285613e61565b6000601f831160018114613f555760008415613f43578287013590505b613f4d8582613ed2565b865550613fb5565b601f198416613f6386613d4c565b60005b82811015613f8b57848901358255600182019150602085019450602081019050613f66565b86831015613fa85784890135613fa4601f891682613eb4565b8355505b6001600288020188555050505b50505050505050565b7f50524f544f434f4c204352454154454400000000000000000000000000000000600082015250565b6000613ff4601083612e72565b9150613fff82613fbe565b602082019050919050565b600060608201905061401f60008301856130fa565b818103602083015261403081613fe7565b905061403f6040830184613c35565b9392505050565b60008160011c9050919050565b6000808291508390505b600185111561409d5780860481111561407957614078613a68565b5b60018516156140885780820291505b808102905061409685614046565b945061405d565b94509492505050565b6000826140b65760019050614172565b816140c45760009050614172565b81600181146140da57600281146140e457614113565b6001915050614172565b60ff8411156140f6576140f5613a68565b5b8360020a91508482111561410d5761410c613a68565b5b50614172565b5060208310610133831016604e8410600b84101617156141485782820a90508381111561414357614142613a68565b5b614172565b6141558484846001614053565b9250905081840481111561416c5761416b613a68565b5b81810290505b9392505050565b600061418482612f77565b915061418f83612f77565b92506141bc7fffffffffffffffffffffffffffffffffffffffffffffffffffffffffffffffff84846140a6565b905092915050565b60006141cf82612f77565b91506141da83612f77565b92508282026141e881612f77565b915082820484148315176141ff576141fe613a68565b5b5092915050565b7f496e73756666696369656e7420746f6b656e7300000000000000000000000000600082015250565b600061423c601383612e72565b915061424782614206565b602082019050919050565b6000602082019050818103600083015261426b8161422f565b9050919050565b7f50524f544f434f4c20564f544500000000000000000000000000000000000000600082015250565b60006142a8600d83612e72565b91506142b382614272565b602082019050919050565b60006060820190506142d360008301856130fa565b81810360208301526142e48161429b565b90506142f3604083018461301a565b9392505050565b7f434f4e545249425554494f4e2052454345495645440000000000000000000000600082015250565b6000614330601583612e72565b915061433b826142fa565b602082019050919050565b600060608201905061435b60008301856130fa565b818103602083015261436c81614323565b905061437b604083018461301a565b9392505050565b61438b81612f39565b82525050565b60006020820190506143a66000830184614382565b92915050565b60006060820190506143c16000830186614382565b6143ce602083018561301a565b6143db604083018461301a565b949350505050565b7f50726f746f636f6c206475726174696f6e206578706972656400000000000000600082015250565b6000614419601983612e72565b9150614424826143e3565b602082019050919050565b600060208201905081810360008301526144488161440c565b9050919050565b7f446f75626c6520766f74696e67206e6f7420616c6c6f77656400000000000000600082015250565b6000614485601983612e72565b91506144908261444f565b602082019050919050565b600060208201905081810360008301526144b481614478565b9050919050565b60006040820190506144d0600083018561301a565b6144dd602083018461301a565b9392505050565b60006040820190506144f96000830185614382565b61450660208301846130fa565b939250505056fe50726f746f636f6c204372656174696f6e20416c6c6f77656420666f72205374616b65686f6c64657273206f6e6c79a2646970667358221220d7b099fcebd084f9d47a1ab9b5324b8d872a8c460aaa0c5db922543c94aa7b5364736f6c63430008140033",
  "linkReferences": {},
  "deployedLinkReferences": {}
}